:1009BF0020200020202D20202D20200020203A2034
:0509CF00203A20200089
:040A0C00021F0000C5
:1006450012052CE511FB3395E0FA750C027D017F4F
:1006550001120975E512FB3395E0FA750C027D046C
:100665007F01120975E513FB3395E0FA750C027DE0
:10067500077F01120975E514FB3395E0FA750C0245
:100685007D017F02120975E515FB3395E0FA750CBE
:10069500027D047F02120975E516FB3395E0FA75B4
:0906A5000C027D077F02020975B9
:10000E00E524B4020B0521E52175F0068485F02167
:10001E00E524640360030200E874112521F806D379
:10002E00E511648094E34003E4F511D3E512648096
:10003E00948C4003751201E51264016023E512648D
:10004E0003601DE51264056017E51264076011E593
:10005E00126408600BE512640A6005E512B40C0B1D
:10006E00D3E5136480949F404D8048E5126404608C
:10007E0011E5126406600BE51264096005E512B421
:10008E000B0BD3E5136480949E402B8026E512B4AF
:10009E000224E51175F004120476AFF0EF700BD365
:1000AE00E5136480949D400E8009D3E5136480941B
:1000BE009C4003751301D3E514648094974003E4C8
:1000CE00F514D3E515648094BB4003E4F515D3E530
:1000DE0016648094BB4003E4F516E52464046003C3
:1000EE000201E374112521F816C3E5116480948092
:1000FE005003751163C3E512648094815003751229
:10010E000CE51264016023E5126403601DE51264C0
:10011E00056017E51264076011E5126408600BE5CF
:10012E0012640A6005E512B40C17C3E513648094DB
:10013E0081500375131FD3E5136480949F40728022
:10014E006DE51264046011E5126406600BE512643D
:10015E00096005E512B40B17C3E513648094815052
:10016E000375131ED3E5136480949E4044803FE5CF
:10017E00126402703CE51175F004120476AFF0EFD4
:10018E007017C3E51364809481500375131DD3E576
:10019E00136480949D401A8015C3E5136480948186
:1001AE00500375131CD3E5136480949C40037513A0
:1001BE0001C3E514648094805003751417C3E515CC
:1001CE0064809480500375153BC3E516648094805B
:1001DE00500375163BE5217014E523B4010F7BFF28
:1001EE007A0979BF7D017F011209348011E511FB77
:1001FE003395E0FA750C027D017F01120975E52138
:10020E00B40114E523B4010F7BFF7A0979BF7D0495
:10021E007F011209348011E512FB3395E0FA750C5B
:10022E00027D047F01120975E521B40214E523B4A1
:10023E00010F7BFF7A0979BF7D077F011209348098
:10024E0011E513FB3395E0FA750C027D077F011261
:10025E000975E521B40314E523B4010F7BFF7A0978
:10026E0079BF7D017F021209348011E514FB3395AD
:10027E00E0FA750C027D017F02120975E521B404C6
:10028E0014E523B4010F7BFF7A0979BF7D047F0249
:10029E001209348011E515FB3395E0FA750C027DD9
:1002AE00047F02120975E521B40514E523B4010F8C
:1002BE007BFF7A0979BF7D077F021209348011E531
:1002CE0016FB3395E0FA750C027D077F0212097555
:1002DE00E521FB7A00750C027D0A7F02120975E595
:0E02EE0023FB7A00750C027D0D7F020209755C
:10076B001209E91200031209927BFF7A0979C27D03
:10077B00017F011209347BFF7A0979CB7D017F025E
:10078B001209341202FC1206AE8F24E524B40114B4
:10079B00E5227005752201800BE522B40106E4F514
:1007AB00221202FCE5221460080470DA120645805E
:0607BB00D512000E80D0F3
:03000B0002080FD9
:0B080F00C0E0C0D075D000C006C007DC
:10081A00758CFC758A660520E5207002051F052087
:10082A00E520AE1F7002051F14C394E8EE9403403E
:10083A0012751F00752000E52370047F0180027F76
:03084A00008F23F9
:09084D00D007D006D0D0D0E03273
:090A1000071118090A131337023B
:05000300C2B5C2B622E7
:05070F002DFDEE3CFC95
:060714008C088D09AB0703
:10071A00D2B5E4FD74017E00A805088005C333CE76
:10072A0033CED8F9FFEBF582EF558224FF92B4D28B
:10073A00B6C2B60DBD08DDE4FD74017E00A8050849
:10074A008005C333CE33CED8F9FFE5085EFEE5094E
:10075A005F4E24FF92B4D2B6C2B60DBD08DBC2B555
:01076A00226C
:0207C100AD0782
:1007C300E4F9430501D2B5FB74017E00A803088058
:1007D30005C333CE33CED8F9FFEDF582EF5582242E
:1007E300FF92B4C2B6D2B60BBB08DDE4FBD2B6C2ED
:1007F300B630B40D7401A803088002C333D8FC4299
:0B080300010BBB08E8C2B5C2B4AF0196
:01080E0022C7
:1002FC00E4FDFC7F8E120714E51175F00A120476EA
:10030C00FF3395E0FEEFC4F8540FC868FFEEC454F9
:10031C00F048FEE51175F00A120476ADF0ED339558
:10032C00E0FCEF7F8C12070FE51275F00A120476D1
:10033C00FF3395E0FEEFC4F8540FC868FFEEC454C9
:10034C00F048FEE51275F00A120476ADF0ED339527
:10035C00E0FCEF7F8812070FE51375F00A120476A4
:10036C00FF3395E0FEEFC4F8540FC868FFEEC45499
:10037C00F048FEE51375F00A120476ADF0ED3395F6
:10038C00E0FCEF2DFDEE3CFC7F86120714E51475A6
:10039C00F00A120476FF3395E0FEEFC4F8540FC850
:1003AC0068FFEEC454F048FEE51475F00A120476AA
:1003BC00ADF0ED3395E0FCEF2DFDEE3CFC7F8412AF
:1003CC000714E51575F00A120476FF3395E0FEEF7D
:1003DC00C4F8540FC868FFEEC454F048FEE5157518
:1003EC00F00A120476ADF0ED3395E0FCEF2DFDEE46
:1003FC003CFC7F82120714E51675F00A120476FF96
:10040C003395E0FEEFC4F8540FC868FFEEC454F007
:10041C0048FEE51675F00A120476ADF0ED3395E062
:10042C00FCEF2DFDEE3CFC7F80120714E51775F0F8
:10043C000A120476FF3395E0FEEFC4F8540FC86837
:10044C00FFEEC454F048FEE51775F00A120476ADC1
:10045C00F0ED3395E0FCEF2DFDEE3CFC7F8A1207AE
:0A046C00147D807C007F8E020714CF
:10052C007F8C1207C1EFC4540F75F00AA4FEEF5470
:10053C000F2EF5117F881207C1EFC4540F75F00A06
:10054C00A4FEEF540F2EF5127F861207C1EFC45490
:10055C000F75F00AA4FEEF540F2EF5137F841207CB
:10056C00C1EFC4540F75F00AA4FEEF540F2EF5140E
:10057C007F821207C1EFC4540F75F00AA4FEEF542A
:10058C000F2EF5157F801207C1EFC4540F75F00ABA
:10059C00A4FEEF540F2EF5167F8A1207C1EFC45438
:0C05AC000F75F00AA4FEEF540F2EF51797
:0105B8002220
:1009D400EF1FAC0670011E4C600A7D027CC7DCFE72
:0409E400DDFC80ECCA
:0109E80022EC
:0609FD00C2A58F80D2A705
:080A03007F027EEFDEFEDFFC46
:010A0B0022C8
:0A0A1A00C2A61209FDC2A7020A03DA
:10095700CFCDCFCECCCE1204D77C007D0A1204D7E0
:04096700ED2430FF4C
:0A096B00D2A61209FDC2A7020A037A
:1009A900AE07BE0104ED148006BE0209ED243F44E2
:0609B90080FF120A1A2261
:1009E9007F38120A1A7F0C120A1A7F06120A1A7F16
:0409F90001020A1AD3
:0A0A2400AC031209A9AF0402096B2C
:060934008B088A09890A04
:10093A001209A9E4FDAB08AA09A90A8D82758300E8
:0C094A00120498FF600612096B0D80E992
:01095600227E
:0C0901007F0AEA24FFFDE434FFFC7E00C6
:08090D008E0D8F0E8C0F8D1072
:100915007F017E00E4FBEBC39510E50F6480F8745E
:0E0925008098500AAC0DAD0E1204C50B80E890
:0109330022A1
:040975008A0A8B0B54
:100979001209A9AA0CEAD39400400D120901AC0A84
:08098900AD0B1209571A80EDB5
:010991002243
:100856001209A9C3EA64809480400B7F2B12096BAE
:100866008A1D8B1E800E7F2D12096BC3E49BF51E1D
:10087600E49AF51DAA1CEAD39400400D120901ACB6
:090886001DAD1E1209571A80ED88
:01088F002246
:040890008A278B2800
:100894001209A9AA29EAD3940040297F1012090356
:1008A400AC27AD28CFCDCFCECCCE1204D7EF540F8A
:1008B400FEC3940AEE5004243080022437FF120948
:0408C4006B1A80D15A
:0108C800220D
:0408C9008A2C8B2DBD
:1008CD001209A9AA2EEAD394004028EA24FFFDE4D8
:1008DD0034FFFC7F027E0012090DAC2CAD2DCFCD67
:1008ED00CFCECCCE1204D7EF54012430FF12096BBA
:0308FD001A80D28C
:0109000022D4
:1006AE00E4F50820B1137F14FE1209D430B1FD7F9A
:1006BE00147E001209D475080120B0147F147E0038
:1006CE001209D430B0FD7F147E001209D4750802D1
:1006DE0020B2147F147E001209D430B1FD7F147E37
:1006EE00001209D475080320B3147F147E0012097A
:1006FE00D430B1FD7F147E001209D4750804AF0802
:01070E0022C8
:100992005389F0438901758A66758CFCC28DD28CAD
:0709A200D2A9D2AFC2B922B5
:030000000205B93D
:0C05B900787FE4F6D8FD75812E02060064
:10047600C2D530F707B2D563F0FF05F030E70CB20E
:10048600D5F4048463F0FF05F080018430D502F4CE
:0204960004223E
:10049800BB010CE58229F582E5833AF583E0225019
:1004A80006E92582F8E622BBFE06E92582F8E22263
:0D04B800E58229F582E5833AF583E493227D
:1004C500EF8DF0A4A8F0CF8CF0A428CE8DF0A42E4B
:0204D500FE2205
:1004D700BC000BBE0029EF8DF084FFADF022E4CC09
:1004E700F875F008EF2FFFEE33FEEC33FCEE9DECD2
:1004F700984005FCEE9DFE0FD5F0E9E4CEFD22ED18
:10050700F8F5F0EE8420D21CFEADF075F008EF2F61
:10051700FFED33FD4007985006D5F0F222C398FD52
:050527000FD5F0EA22EF
:1005C50002076BE493A3F8E493A34003F68001F2DA
:1005D50008DFF48029E493A3F85407240CC8C33337
:1005E500C4540F4420C8834004F456800146F6DF06
:1005F500E4800B0102040810204080900A0CE47E80
:10060500019360BCA3FF543F30E509541FFEE493FA
:10061500A360010ECF54C025E060A840B8E493A3C1
:10062500FAE493A3F8E493A3C8C582C8CAC583CAEC
:10063500F0A3C8C582C8CAC583CADFE9DEE780BEA4
:010A190000DC
:00000001FF
